S01400002E2F44656275672F44616E63652E73313992
S315200000000248854600F00EFCFEE7C04600C00120EF
S3152000001080B500AF0E4B1B6800221A600D4B1B6883
S3152000002001221A600C4B1B6800221A60084B1B68C1
S3152000003005221A60C046064B1B681B68072BFAD997
S31520000040034B1B6800221A60C046BD4680BDC046D1
S31520000050380800203C0800204008002080B500AF6A
S31520000060FFF7D6FFFFF7D4FFC046BD4680BDC0468A
S3152000007080B584B000AF78607B689B08FB6004E0A5
S31520000080FFF7C6FFFB68013BFB60FB68002BF7D13F
S31520000090C046BD4604B080BD80B584B000AF786050
S315200000A07B68FA2252005343FB6005E00220FFF7EB
S315200000B0DFFFFB68013BFB60FB68002BF6D1C046E7
S315200000C0BD4604B080BDC04680B584B000AF0200F6
S315200000D0FB1D1A70124A0F23FB1812781A700F2371
S315200000E0FB180F22BA18127804218A431A70FB1DB6
S315200000F01B785BB2042293435AB20F23FB181B785A
S315200001005BB213435AB20F23FB181A70044A0F230B
S31520000110FB181B781370C046BD4604B080BDC04690
S315200001201410024080B584B000AF0200FB1D1A7087
S31520000130114A0F23FB1812781A700F23FB180F226F
S31520000140BA18127804218A431A70FB1D1B785BB2F9
S31520000150DB435BB20F22BA18127852B213405AB25E
S315200001600F23FB181A70044A0F23FB181B781370F1
S31520000170C046BD4604B080BD1410024080B582B092
S3152000018000AF0200FB1D1A70FB1D1B78082B08D040
S3152000019002DC002B17D01AE0102B09D0182B0ED01A
S315200001A015E01020FFF7BEFF0820FFF78DFF0EE0B9
S315200001B00820FFF7B7FF1020FFF786FF07E018207B
S315200001C0FFF782FF03E01820FFF7ACFFC046C046CA
S315200001D0BD4602B080BDC04680B582B000AF40208B
S315200001E0FFF7A0FF174B184A1A60184A174B1B78BF
S315200001F0DBB25BB203218B435BB202210B435BB2C2
S31520000200DBB21370FFF72AFF4020FFF75DFFFFF7F1
S3152000021025FF0F4B1B78DAB2FB1D7F218A431A700C
S315200002204020FFF77FFFFFF719FFFB1D1B78002BF0
S3152000023000D0E9E7C046034B064A1A60C046BD46D1
S3152000024002B080BD00100240555500001410024037
S31520000250111002405555555580B584B000AF0200A7
S31520000260FB1D1A704020FFF75DFF1E4B1E4A1A60C9
S315200002701E4A1E4B1B78DBB203210B43DBB21370E5
S31520000280FB1D1B781800FFF779FFFFF7E7FE4020DC
S31520000290FFF71AFFFFF7E2FE154A0F23FB18127825
S315200002A01A704020FFF73EFF0E4B124A1A60FB1DC4
S315200002B01B780822134004D00820FFF75FFFFFF7C2
S315200002C08BFFFB1D1B781022134004D01020FFF754
S315200002D055FFFFF781FF0F23FB181B781800BD463B
S315200002E004B080BD00100240555500001410024095
S315200002F0111002405555555580B584B000AF020007
S31520000300FB1D1A700E23FB1800221A703FE04020B6
S31520000310FFF708FF244B254A1A60254A244B1B78F1
S31520000320DBB203210B43DBB21370FB1D1B781800D5
S31520000330FFF724FFFFF792FE4020FFF7C5FEFFF7E9
S315200003408DFE1C4A0F23FB1812781A704020FFF7E7
S31520000350E9FE154B184A1A60FB1D1B78082213402C
S3152000036004D00820FFF70AFFFFF736FFFB1D1B7896
S315200003701022134004D01020FFF700FFFFF72CFFB8
S315200003800E23FB181A780E23FB1801321A700E233F
S31520000390FB181B78012BBAD90F23FB181B781800E2
S315200003A0BD4604B080BDC046001002405555000031
S315200003B014100240111002405555555580B582B093
S315200003C000AF0200FB1D1A70BB1D0A1C1A70134ACF
S315200003D0FB1D1B781370BB1D1B781800FFF7CEFE84
S315200003E0FFF73CFE4020FFF76FFEFFF737FE402069
S315200003F0FFF798FEBB1D1B781800FFF7BFFEFFF71F
S31520000400EBFE064B00221A704020FFF75DFE00200F
S31520000410FFF7B4FEC046BD4602B080BD15100240AF
S3152000042080B582B000AF0200FB1D1A70BB1D0A1CEE
S315200004301A704020FFF776FE094A094B1B78DBB27B
S3152000044003218B43DBB21370BB1D1A78FB1D1B786F
S3152000045011001800FFF7B2FFC046BD4602B080BDAE
S315200004601410024080B582B000AF0200FB1D1A7046
S31520000470BB1D0A1C1A704020FFF754FEBB1D1B78BB
S315200004801800FFF77BFE0C4A0B4B1B78DBB25BB2E6
S3152000049003218B435BB201210B435BB2DBB21370AA
S315200004A0BB1D1A78FB1D1B7811001800FFF786FF6D
S315200004B0C046BD4602B080BD1410024080B582B051
S315200004C000AF1821B820FFF7ABFF18214020FFF717
S315200004D0A7FFFB1D00221A7028E0FB1D1B7848226F
S315200004E052421343DBB218211800FFF799FFBB1DB8
S315200004F000221A7011E0BB1D1B7840221343DBB289
S3152000050018211800FFF78CFF18210020FFF7AAFFFB
S31520000510BB1D1A78BB1D01321A70BB1D1B783E2BE2
S31520000520E9D9FB1D1A78FB1D01321A70FB1D1B78B9
S31520000530062BD2D9C046BD4602B080BD90B585B047
S3152000054000AF040008001100FB1D221C1A70BB1D01
S31520000550021C1A707B1D0A1C1A700F23FB18082216
S315200005601A70BB1D1B78402B03D90F23FB181022B2
S315200005701A70BB1D1B783F221340DBB24022134367
S31520000580DAB20F23FB181B7819001000FFF748FF7B
S31520000590FB1D1B78482252421343DAB20F23FB1865
S315200005A01B7819001000FFF73BFF0F23FB181A7862
S315200005B07B1D1B7811001800FFF754FFC046BD466F
S315200005C005B090BD80B584B000AF0200FB1D1A7047
S315200005D0BB1D0A1C1A700F23FB1808221A70BB1D9C
S315200005E01B78402B03D90F23FB1810221A70BB1D32
S315200005F01B783F221340DBB240221343DAB20F238B
S31520000600FB181B7819001000FFF70AFFFB1D1B784B
S31520000610482252421343DAB20F23FB181B781900E3
S315200006201000FFF7FDFE0F23FB181B781800FFF7BD
S3152000063063FE03001800BD4604B080BD90B587B0A8
S3152000064000AF040008001100FB1D221C1A70BB1D00
S31520000650021C1A707B1D0A1C1A70FB1D1B78002BAE
S3152000066000D19EE0BB1D1B78002B00D199E0FB1D1D
S315200006701B78802B00D994E0BB1D1B78402B00D91A
S315200006808FE0BB1D1B78013B002B00DA0733DB1004
S315200006903B61BB1D1B78013B444A134004D5013BFB
S315200006A008225242134301331A00012393401A00B1
S315200006B01723FB181A707B1D1B78002B06D11723D6
S315200006C0FB181722BA181278D2431A70FB1D1B7812
S315200006D0402B09D91623FB1810221A70FB1DFA1D70
S315200006E01278413A1A7008E01623FB1808221A706D
S315200006F0FB1DFA1D1278013A1A70FB1D1B78402249
S315200007001343DAB21623FB181B7819001000FFF7E3
S3152000071087FE3B695BB24822524213435BB2DAB290
S315200007201623FB181B7819001000FFF779FE0F23FC
S31520000730FC181623FB181B781800FFF7DDFD0300B5
S315200007402370FB1D1B7840221343DAB21623FB18B5
S315200007501B7819001000FFF763FE7B1D1B78002B0A
S315200007600AD01723FB181722B9180F22BA180978AE
S3152000077012780A431A7009E01723FB181722BA18B1
S315200007800F217918127809780A401A701623FB1857
S315200007901A781723FB181B7811001800FFF762FE42
S315200007A000E0C046BD4607B090BDC04607000080A9
S315200007B080B500AF024B034A1A60C046BD4680BDD5
S315200007C0001002405555555580B500AF4020FFF723
S315200007D07BFC0A20FFF74CFC7820FFF7A3FC1E20A9
S315200007E0FFF75AFC2020FFF76FFC0A20FFF754FC86
S315200007F018213E20FFF714FE18213F20FFF710FE98
S315200008001821C020FFF70CFE18214020FFF708FE14
S315200008101821B820FFF704FE0020FFF7AFFCC046E2
S31520000820BD4680BD80B500AFFFF7C2FFFFF7CCFF06
S3152000083000231800BD4680BD10E000E014E000E073
S3092000084018E000E0B6
S70520000000DA
