S01400002E2F44656275672F44616E63652E73313992
S315200000000248854600F0ACFDFEE7C04600C0012050
S3152000001080B500AF0E4B1B6800221A600D4B1B6883
S3152000002001221A600C4B1B6800221A60084B1B68C1
S3152000003005221A60C046064B1B681B68072BFAD997
S31520000040034B1B6800221A60C046BD4680BDC046D1
S31520000050900C0020940C0020980C002080B500AF56
S31520000060FFF7D6FFFFF7D4FFC046BD4680BDC0468A
S3152000007080B584B000AF78607B689B08FB6004E0A5
S31520000080FFF7C6FFFB68013BFB60FB68002BF7D13F
S31520000090C046BD4604B080BD80B584B000AF786050
S315200000A07A68FA239900100000F066FD03007B6051
S315200000B07B6801337B607B68FA2252005343FB60E6
S315200000C005E00220FFF7D4FFFB68013BFB60FB68DD
S315200000D0002BF6D1C046BD4604B080BD80B584B0A5
S315200000E000AF0200FB1D1A70124A0F23FB1812786C
S315200000F01A700F23FB180F22BA18127804218A438C
S315200001001A70FB1D1B785BB2042293435AB20F234D
S31520000110FB181B785BB213435AB20F23FB181A70D5
S31520000120044A0F23FB181B781370C046BD4604B043
S3152000013080BDC0461410024080B584B000AF0200D6
S31520000140FB1D1A70114A0F23FB1812781A700F2301
S31520000150FB180F22BA18127804218A431A70FB1D45
S315200001601B785BB2DB435BB20F22BA18127852B20D
S3152000017013405AB20F23FB181A70044A0F23FB1898
S315200001801B781370C046BD4604B080BD14100240D3
S3152000019080B582B000AF0200FB1D1A70FB1D1B78D4
S315200001A0082B08D002DC002B17D01AE0102B09D020
S315200001B0182B0ED015E01020FFF7BEFF0820FFF702
S315200001C08DFF0EE00820FFF7B7FF1020FFF786FF10
S315200001D007E01820FFF782FF03E01820FFF7ACFFA7
S315200001E0C046C046BD4602B080BDC04680B582B07E
S315200001F000AF4020FFF7A0FF174B184A1A60184A95
S31520000200174B1B78DBB25BB203218B435BB2022117
S315200002100B435BB2DBB21370FFF720FF4020FFF7E2
S315200002205DFFFFF71BFF0F4B1B78DAB2FB1D7F210B
S315200002308A431A704020FFF77FFFFFF70FFFFB1D51
S315200002401B78002B00D0E9E7C046034B064A1A600C
S31520000250C046BD4602B080BD001002405555000084
S3152000026014100240111002405555555580B584B0E2
S3152000027000AF0200FB1D1A704020FFF75DFF1E4BEA
S315200002801E4A1A601E4A1E4B1B78DBB203210B4303
S31520000290DBB21370FB1D1B781800FFF779FFFFF701
S315200002A0DDFE4020FFF71AFFFFF7D8FE154A0F2381
S315200002B0FB1812781A704020FFF73EFF0E4B124AA9
S315200002C01A60FB1D1B780822134004D00820FFF774
S315200002D05FFFFFF78BFFFB1D1B781022134004D016
S315200002E01020FFF755FFFFF781FF0F23FB181B7820
S315200002F01800BD4604B080BD0010024055550000D0
S3152000030014100240111002405555555580B584B041
S3152000031000AF0200FB1D1A700E23FB1800221A7074
S315200003203FE04020FFF708FF244B254A1A60254A64
S31520000330244B1B78DBB203210B43DBB21370FB1D6E
S315200003401B781800FFF724FFFFF788FE4020FFF7F1
S31520000350C5FEFFF783FE1C4A0F23FB1812781A707E
S315200003604020FFF7E9FE154B184A1A60FB1D1B7843
S315200003700822134004D00820FFF70AFFFFF736FFB4
S31520000380FB1D1B781022134004D01020FFF700FF1E
S31520000390FFF72CFF0E23FB181A780E23FB180132C9
S315200003A01A700E23FB181B78012BBAD90F23FB18C2
S315200003B01B781800BD4604B080BDC0460010024020
S315200003C05555000014100240111002405555555540
S315200003D080B582B000AF0200FB1D1A70BB1D0A1C3F
S315200003E01A70134AFB1D1B781370BB1D1B7818004F
S315200003F0FFF7CEFEFFF732FE4020FFF76FFEFFF736
S315200004002DFE4020FFF798FEBB1D1B781800FFF736
S31520000410BFFEFFF7EBFE064B00221A704020FFF7C7
S315200004205DFE0020FFF7B4FEC046BD4602B080BD8B
S315200004301510024080B582B000AF0200FB1D1A7075
S31520000440BB1D0A1C1A704020FFF776FE094A094B8D
S315200004501B78DBB203218B43DBB21370BB1D1A78EA
S31520000460FB1D1B7811001800FFF7B2FFC046BD46E2
S3152000047002B080BD1410024080B582B000AF0200E9
S31520000480FB1D1A70BB1D0A1C1A704020FFF754FE74
S31520000490BB1D1B781800FFF77BFE0C4A0B4B1B7805
S315200004A0DBB25BB203218B435BB201210B435BB210
S315200004B0DBB21370BB1D1A78FB1D1B7811001800C8
S315200004C0FFF786FFC046BD4602B080BD141002402D
S315200004D080B582B000AF1821B820FFF7ABFF1821F6
S315200004E04020FFF7A7FFFB1D00221A7028E0FB1D06
S315200004F01B78482252421343DBB218211800FFF71B
S3152000050099FFBB1D00221A7011E0BB1D1B784022EB
S315200005101343DBB218211800FFF78CFF18210020A7
S31520000520FFF7AAFFBB1D1A78BB1D01321A70BB1D2F
S315200005301B783E2BE9D9FB1D1A78FB1D01321A7058
S31520000540FB1D1B78062BD2D9C046BD4602B080BD06
S3152000055090B585B000AF040008001100FB1D221CD9
S315200005601A70BB1D021C1A707B1D0A1C1A700F23E1
S31520000570FB1808221A70BB1D1B78402B03D90F23AA
S31520000580FB1810221A70BB1D1B783F221340DBB2CA
S3152000059040221343DAB20F23FB181B7819001000F0
S315200005A0FFF748FFFB1D1B78482252421343DAB25D
S315200005B00F23FB181B7819001000FFF73BFF0F23B2
S315200005C0FB181A787B1D1B7811001800FFF754FFC3
S315200005D0C046BD4605B090BD80B584B000AF0200D0
S315200005E0FB1D1A70BB1D0A1C1A700F23FB1808224C
S315200005F01A70BB1D1B78402B03D90F23FB18102222
S315200006001A70BB1D1B783F221340DBB240221343D6
S31520000610DAB20F23FB181B7819001000FFF70AFF28
S31520000620FB1D1B78482252421343DAB20F23FB18D4
S315200006301B7819001000FFF7FDFE0F23FB181B780F
S315200006401800FFF763FE03001800BD4604B080BD06
S3152000065090B587B000AF040008001100FB1D221CD6
S315200006601A70BB1D021C1A707B1D0A1C1A70FB1DFA
S315200006701B78002B00D19EE0BB1D1B78002B00D1E0
S3152000068099E0FB1D1B78802B00D994E0BB1D1B78BD
S31520000690402B00D98FE0BB1D1B78013B002B00DAD5
S315200006A00733DB103B61BB1D1B78013B444A1340DB
S315200006B004D5013B08225242134301331A00012379
S315200006C093401A001723FB181A707B1D1B78002BEA
S315200006D006D11723FB181722BA181278D2431A709C
S315200006E0FB1D1B78402B09D91623FB1810221A70E4
S315200006F0FB1DFA1D1278413A1A7008E01623FB18E2
S3152000070008221A70FB1DFA1D1278013A1A70FB1D79
S315200007101B7840221343DAB21623FB181B781900E4
S315200007201000FFF787FE3B695BB248225242134313
S315200007305BB2DAB21623FB181B7819001000FFF7FC
S3152000074079FE0F23FC181623FB181B781800FFF7D9
S31520000750DDFD03002370FB1D1B7840221343DAB214
S315200007601623FB181B7819001000FFF763FE7B1D6C
S315200007701B78002B0AD01723FB181722B9180F2233
S31520000780BA18097812780A431A7009E01723FB1859
S315200007901722BA180F217918127809780A401A7088
S315200007A01623FB181A781723FB181B78110018003C
S315200007B0FFF762FE00E0C046BD4607B090BDC046CA
S315200007C00700008080B584B000AF0200FB1D1A70C0
S315200007D00C4A0F23FB1812781A70FA1D0F23FB18E8
S315200007E012781B781343DAB20F23FB1804210A432D
S315200007F01A70044A0F23FB181B781370C046BD4697
S3152000080004B080BD1410024080B584B000AF020051
S31520000810FB1D1A700F4A0F23FB1812781A70FB1D46
S315200008201B785BB2DB435BB20F22BA18127852B246
S3152000083013405BB2042213435AB20F23FB181A70DB
S31520000840044A0F23FB181B781370C046BD4604B01C
S3152000085080BDC0461410024080B582B000AF0200B1
S31520000860FB1D1A704020FFF7ADFF064AFB1D1B78C3
S315200008701370FFF7CDFB4020FFF7C6FFC046BD46ED
S3152000088002B080BD1510024080B582B000AF0200D4
S31520000890FB1D1A70084A084B1B78DBB203218B43D9
S315200008A0DBB21370FB1D1B781800FFF7D5FFC0467F
S315200008B0BD4602B080BDC0461410024080B582B04D
S315200008C000AF0200FB1D1A700A4A0A4B1B78DBB2E6
S315200008D05BB203218B435BB201210B435BB2DBB2DC
S315200008E01370FB1D1B781800FFF7B6FFC046BD46E8
S315200008F002B080BD1410024080B582B000AF402007
S31520000900FFF760FFFFF784FBFFF782FB064AFB1D1C
S3152000091012781A704020FFF777FFFB1D1B7818000E
S31520000920BD4602B080BDC0461110024090B583B0CE
S3152000093000AF124B114A12681204120C1A60104AA8
S315200009400F4B1B78DBB25BB203218B435BB20221D8
S315200009500B435BB2DBB21370FC1DFFF7CDFF030028
S315200009602370064B054A126806490A431A60FB1D86
S315200009701B781800BD4603B090BDC046001002404B
S31520000980141002400000555590B583B000AF0F4BB0
S315200009900E4A12681204120C1A600D4A0C4B1B7870
S315200009A0DBB203210B43DBB21370FC1DFFF7A4FF60
S315200009B003002370054B054A126806490A431A604C
S315200009C0FB1D1B781800BD4603B090BD00100240E9
S315200009D0141002400000555580B582B000AF0200C9
S315200009E0FB1D1A70C046FFF7A1FF03005BB2002B68
S315200009F0F9DB0820FFF73CFBFB1D1B781800FFF7EF
S31520000A0043FF0220FFF748FBC046BD4602B080BD2B
S31520000A1080B584B000AF0200FB1D1A70BB1D0A1CF6
S31520000A201A700F23FB18FA1D1278013A1A70BB1D93
S31520000A301B78012B09D0022B08D10F23FB180F227C
S31520000A40BA18127840321A7000E0C0460F23FB18FD
S31520000A501B78802252421343DBB21800FFF714FFA3
S31520000A60C046BD4604B080BD80B500AF2820FFF744
S31520000A7013FB094B04221A703820FFF7ADFF012023
S31520000A80FFF7AAFF0E20FFF7A7FF0420FFF7A4FF1A
S31520000A90C046BD4680BDC0461410024080B582B017
S31520000AA000AF0200FB1D1A7001E0FFF7B1FAFFF755
S31520000AB03DFF03005BB2002BF7DB0820FFF7D8FAD7
S31520000AC0FB1D1B781800FFF7F9FE2820FFF7D0FA48
S31520000AD0C046BD4602B080BD80B500AF024B034A7A
S31520000AE01A60C046BD4680BD00100240555555557A
S31520000AF080B582B000AF4020FFF7F0FA0A20FFF75A
S31520000B00B7FA7820FFF718FB1E20FFF7C5FA20203A
S31520000B10FFF7E4FAFB1D64221A70FB1D0A221A70E5
S31520000B20FB1D1B781800FFF7B7FA18213E20FFF7A8
S31520000B3081FC18213F20FFF77DFC1821C020FFF7FC
S31520000B4079FC18214020FFF775FC1821B820FFF703
S31520000B5071FC0020FFF71CFBC046BD4602B080BDDD
S31520000B6080B500AFFFF7B8FFFFF7C2FFFFF77CFFA6
S31520000B7000231800BD4680BD012051E21EFF2F0133
S31520000B803600003A010050E12200009A020011E1ED
S31520000B902300000A0E0211E38111A0010830A003F0
S31520000BA00130A013010251E3000051310112A0319E
S31520000BB00332A031FAFFFF3A020151E3000051311E
S31520000BC08110A0318330A031FAFFFF3A0020A0E344
S31520000BD0010050E10100402003208221A10050E1C4
S31520000BE0A1004020A3208221210150E121014020A3
S31520000BF023218221A10150E1A1014020A3218221AC
S31520000C00000050E32332B0112112A011EFFFFF1A8A
S31520000C100200A0E11EFF2FE10100A0030000A013A7
S31520000C201EFF2FE1010851E32118A0211020A02347
S31520000C300020A033010C51E32114A0210820822298
S31520000C40100051E32112A02104208222040051E346
S31520000C5003208282A12082903002A0E11EFF2FE194
S31520000C60000050E30000E013070000EA000051E313
S31520000C70FAFFFF0A03402DE9BEFFFFEB0640BDE861
S31520000C80920003E0031041E01EFF2FE11EFF2FE13B
S31120000C9010E000E014E000E018E000E0B6
S70520000000DA
